:060000000A128A11142906
:10000800F000030EF1000B1831200B191020710EAF
:100018008300F00E700E090003138312D83081009C
:100028000B1117200800881208138813A1182B2811
:1000380021182028262808002408870008172110DE
:10004800A11408002508870088172114080026082D
:10005800870088162110A11008000B1C0800031344
:100068008312061B3F20061F4320861B4120861F44
:1000780048200B10080027140800A7140800271CA4
:100088000800850AA7010800A71C08008503A70126
:0200980008005E
:100200008A010A140F3982073F3406345B344F34B5
:1002100066346D347D3407347F34673477347C340E
:1002200039345E34793471340317831688018901B7
:10023000031383168501870188120813881303139B
:10024000831606178617031383128501860187011B
:100250008801A1010313831616179617031383123F
:1002600006080B1003138316811303138316151747
:100270009517031383160F178F160F120F140313FE
:100280008316811101158114011481120313831245
:100290008B178B160B118B150B1003138312D83091
:1002A00081000B110508A0005C21A801A901AA0189
:1002B00066216F217821522929080021A4002808ED
:1002C0000021A5002A080021A60008006430A00231
:1002D000A80A03186629A8036430A00708000A309A
:1002E000A002A90A03186F29A9030A30A007080071
:1002F0000130A002AA0A03187829AA030130A00736
:020300000800F3
:04400E00C423FF3F89
:00000001FF
